{
  "contractName": "HealthcareRecords",
  "abi": [
    {
      "inputs": [],
      "payable": false,
      "stateMutability": "nonpayable",
      "type": "constructor"
    },
    {
      "constant": true,
      "inputs": [],
      "name": "getOwner",
      "outputs": [
        {
          "name": "",
          "type": "address"
        }
      ],
      "payable": false,
      "stateMutability": "view",
      "type": "function"
    },
    {
      "constant": false,
      "inputs": [
        {
          "name": "provider",
          "type": "address"
        }
      ],
      "name": "authorizeProvider",
      "outputs": [],
      "payable": false,
      "stateMutability": "nonpayable",
      "type": "function"
    },
    {
      "constant": false,
      "inputs": [
        {
          "name": "patientID",
          "type": "uint256"
        },
        {
          "name": "patientName",
          "type": "string"
        },
        {
          "name": "diagnosis",
          "type": "string"
        },
        {
          "name": "treatment",
          "type": "string"
        }
      ],
      "name": "addRecord",
      "outputs": [],
      "payable": false,
      "stateMutability": "nonpayable",
      "type": "function"
    },
    {
      "constant": true,
      "inputs": [
        {
          "name": "patientID",
          "type": "uint256"
        }
      ],
      "name": "getPatientRecords",
      "outputs": [
        {
          "components": [
            {
              "name": "recordID",
              "type": "uint256"
            },
            {
              "name": "patientName",
              "type": "string"
            },
            {
              "name": "diagnosis",
              "type": "string"
            },
            {
              "name": "treatment",
              "type": "string"
            },
            {
              "name": "timestamp",
              "type": "uint256"
            }
          ],
          "name": "",
          "type": "tuple[]"
        }
      ],
      "payable": false,
      "stateMutability": "view",
      "type": "function"
    },
    {
      "constant": true,
      "inputs": [
        {
          "name": "acc",
          "type": "address"
        }
      ],
      "name": "getAuthorization",
      "outputs": [
        {
          "name": "",
          "type": "bool"
        }
      ],
      "payable": false,
      "stateMutability": "view",
      "type": "function"
    }
  ],
  "bytecode": "0x608060405234801561001057600080fd5b50336000806101000a81548173ffffffffffffffffffffffffffffffffffffffff021916908373ffffffffffffffffffffffffffffffffffffffff160217905550610cdc806100606000396000f3fe608060405260043610610067576000357c010000000000000000000000000000000000000000000000000000000090048063112ea2621461006c5780631a08a34814610095578063893d20e8146100be5780639f64bd48146100e9578063dce7e84314610126575b600080fd5b34801561007857600080fd5b50610093600480360361008e91908101906107e4565b610163565b005b3480156100a157600080fd5b506100bc60048036036100b79190810190610836565b61024f565b005b3480156100ca57600080fd5b506100d36103d5565b6040516100e09190610aca565b60405180910390f35b3480156100f557600080fd5b50610110600480360361010b91908101906107e4565b6103fe565b60405161011d9190610b07565b60405180910390f35b34801561013257600080fd5b5061014d6004803603610148919081019061080d565b610454565b60405161015a9190610ae5565b60405180910390f35b6000809054906101000a900473ffffffffffffffffffffffffffffffffffffffff1673ffffffffffffffffffffffffffffffffffffffff163373ffffffffffffffffffffffffffffffffffffffff161415156101f4576040517f08c379a00000000000000000000000000000000000000000000000000000000081526004016101eb90610b22565b60405180910390fd5b6001600260008373ffffffffffffffffffffffffffffffffffffffff1673ffffffffffffffffffffffffffffffffffffffff16815260200190815260200160002060006101000a81548160ff02191690831515021790555050565b600260003373ffffffffffffffffffffffffffffffffffffffff1673ffffffffffffffffffffffffffffffffffffffff16815260200190815260200160002060009054906101000a900460ff1615156102dd576040517f08c379a00000000000000000000000000000000000000000000000000000000081526004016102d490610b42565b60405180910390fd5b60006001806000878152602001908152602001600020805490500190506001600086815260200190815260200160002060a06040519081016040528083815260200186815260200185815260200184815260200142815250908060018154018082558091505090600182039060005260206000209060050201600090919290919091506000820151816000015560208201518160010190805190602001906103869291906106c1565b5060408201518160020190805190602001906103a39291906106c1565b5060608201518160030190805190602001906103c09291906106c1565b50608082015181600401555050505050505050565b60008060009054906101000a900473ffffffffffffffffffffffffffffffffffffffff16905090565b6000600260008373ffffffffffffffffffffffffffffffffffffffff1673ffffffffffffffffffffffffffffffffffffffff16815260200190815260200160002060009054906101000a900460ff169050919050565b606060016000838152602001908152602001600020805480602002602001604051908101604052809291908181526020016000905b828210156106b6578382906000526020600020906005020160a0604051908101604052908160008201548152602001600182018054600181600116156101000203166002900480601f0160208091040260200160405190810160405280929190818152602001828054600181600116156101000203166002900480156105505780601f1061052557610100808354040283529160200191610550565b820191906000526020600020905b81548152906001019060200180831161053357829003601f168201915b50505050508152602001600282018054600181600116156101000203166002900480601f0160208091040260200160405190810160405280929190818152602001828054600181600116156101000203166002900480156105f25780601f106105c7576101008083540402835291602001916105f2565b820191906000526020600020905b8154815290600101906020018083116105d557829003601f168201915b50505050508152602001600382018054600181600116156101000203166002900480601f0160208091040260200160405190810160405280929190818152602001828054600181600116156101000203166002900480156106945780601f1061066957610100808354040283529160200191610694565b820191906000526020600020905b81548152906001019060200180831161067757829003601f168201915b5050505050815260200160048201548152505081526020019060010190610489565b505050509050919050565b828054600181600116156101000203166002900490600052602060002090601f016020900481019282601f1061070257805160ff1916838001178555610730565b82800160010185558215610730579182015b8281111561072f578251825591602001919060010190610714565b5b50905061073d9190610741565b5090565b61076391905b8082111561075f576000816000905550600101610747565b5090565b90565b60006107728235610c33565b905092915050565b600082601f830112151561078d57600080fd5b81356107a061079b82610b8f565b610b62565b915080825260208301602083018583830111156107bc57600080fd5b6107c7838284610c4f565b50505092915050565b60006107dc8235610c45565b905092915050565b6000602082840312156107f657600080fd5b600061080484828501610766565b91505092915050565b60006020828403121561081f57600080fd5b600061082d848285016107d0565b91505092915050565b6000806000806080858703121561084c57600080fd5b600061085a878288016107d0565b945050602085013567ffffffffffffffff81111561087757600080fd5b6108838782880161077a565b935050604085013567ffffffffffffffff8111156108a057600080fd5b6108ac8782880161077a565b925050606085013567ffffffffffffffff8111156108c957600080fd5b6108d58782880161077a565b91505092959194509250565b6108ea81610beb565b82525050565b60006108fb82610bc8565b8084526020840193508360208202850161091485610bbb565b60005b8481101561094d57838303885261092f838351610a37565b925061093a82610bde565b9150602088019750600181019050610917565b508196508694505050505092915050565b61096781610bfd565b82525050565b600061097882610bd3565b80845261098c816020860160208601610c5e565b61099581610c91565b602085010191505092915050565b6000602482527f4f6e6c79206f776e65722063616e20706572666f726d20746869732066756e6360208301527f74696f6e000000000000000000000000000000000000000000000000000000006040830152606082019050919050565b6000601a82527f4e6f7420616e20617574686f72697a65642070726f76696465720000000000006020830152604082019050919050565b600060a083016000830151610a4f6000860182610abb565b5060208301518482036020860152610a67828261096d565b91505060408301518482036040860152610a81828261096d565b91505060608301518482036060860152610a9b828261096d565b9150506080830151610ab06080860182610abb565b508091505092915050565b610ac481610c29565b82525050565b6000602082019050610adf60008301846108e1565b92915050565b60006020820190508181036000830152610aff81846108f0565b905092915050565b6000602082019050610b1c600083018461095e565b92915050565b60006020820190508181036000830152610b3b816109a3565b9050919050565b60006020820190508181036000830152610b5b81610a00565b9050919050565b6000604051905081810181811067ffffffffffffffff82111715610b8557600080fd5b8060405250919050565b600067ffffffffffffffff821115610ba657600080fd5b601f19601f8301169050602081019050919050565b6000602082019050919050565b600081519050919050565b600081519050919050565b6000602082019050919050565b6000610bf682610c09565b9050919050565b60008115159050919050565b600073ffffffffffffffffffffffffffffffffffffffff82169050919050565b6000819050919050565b6000610c3e82610c09565b9050919050565b6000819050919050565b82818337600083830152505050565b60005b83811015610c7c578082015181840152602081019050610c61565b83811115610c8b576000848401525b50505050565b6000601f19601f830116905091905056fea265627a7a72305820ca2f25d0057acb0f51a4b0a28008d5c79681fa9bfcc5de556136b45c2a9a67736c6578706572696d656e74616cf50037",
  "source": "// SPDX-License-Identifier: MIT\r\npragma solidity >=0.4.22 <0.9.0;\r\npragma experimental ABIEncoderV2;\r\n\r\ncontract HealthcareRecords {\r\n    address owner;\r\n\r\n    struct Record {\r\n        uint256 recordID;\r\n        string patientName;\r\n        string diagnosis;\r\n        string treatment;\r\n        uint256 timestamp;\r\n    }\r\n\r\n    mapping(uint256 => Record[]) private patientRecords;\r\n    mapping(address => bool) private authorizedProviders;\r\n\r\n    // Modifiers\r\n    modifier onlyOwner() {\r\n        require(msg.sender == owner, \"Only owner can perform this function\");\r\n        _;\r\n    }\r\n\r\n    modifier onlyAuthorizedProvider() {\r\n        require(authorizedProviders[msg.sender], \"Not an authorized provider\");\r\n        _;\r\n    }\r\n\r\n    // Constructor sets the contract owner\r\n    constructor() public {\r\n        owner = msg.sender;\r\n    }\r\n\r\n    // Function to get the owner of the contract\r\n    function getOwner() public view returns (address) {\r\n        return owner;\r\n    }\r\n\r\n    // Function to authorize a healthcare provider (only owner can do this)\r\n    function authorizeProvider(address provider) public onlyOwner {\r\n        authorizedProviders[provider] = true;\r\n    }\r\n\r\n    // Function to add a patient record (only authorized providers can do this)\r\n    function addRecord(\r\n        uint256 patientID,\r\n        string memory patientName,\r\n        string memory diagnosis,\r\n        string memory treatment\r\n    ) public onlyAuthorizedProvider {\r\n        uint256 recordID = patientRecords[patientID].length + 1;\r\n        patientRecords[patientID].push(\r\n            Record(recordID, patientName, diagnosis, treatment, block.timestamp)\r\n        );\r\n    }\r\n\r\n    // Function to retrieve patient records (only authorized providers can do this)\r\n    function getPatientRecords(\r\n        uint256 patientID\r\n    ) public view returns (Record[] memory) {\r\n        return patientRecords[patientID];\r\n    }\r\n\r\n    function getAuthorization(address acc) public view returns (bool) {\r\n        return authorizedProviders[acc];\r\n    }\r\n}\r\n",
  "sourcePath": "/Users/tanvisangale/Documents/Project2/Blockchain-Healthcare/contracts/Healthcare.sol",
  "compiler": {
    "name": "solc",
    "version": "0.5.1+commit.c8a2cb62.Emscripten.clang"
  },
  "schemaVersion": "3.4.16",
  "updatedAt": "2024-10-24T16:04:50.133Z",
  "networkType": "ethereum",
  "devdoc": {
    "methods": {}
  },
  "userdoc": {
    "methods": {}
  }
}